:020000040800F2
:1000000050890020450100084D2F00089D2F000851
:100010009F2F0008A12F0008A32F00080000000058
:10002000000000000000000000000000A52F0008F4
:10003000A72F0008000000008BD50008A92F00089A
:100040005F0100085F0100085F0100085F01000810
:100050005F0100085F0100085F010008053000082B
:1000600007300008093000085F0100085F01000840
:100070005F0100085F0100085F0100085F010008E0
:100080005F0100085F0100085F0100085F010008D0
:10009000C1F700085F0100085F010008BB2F0008DE
:1000A0005F0100085F0100085F0100085F010008B0
:1000B0005F0100085F0100085F0100085F010008A0
:1000C0005F0100085F0100085F0100085F01000890
:1000D0005F0100084F2F00089B2F00085F010008F8
:1000E0005F0100085F010008C5F700085F01000814
:1000F0005F0100085F0100085F0100085F01000860
:100100005F0100085F0100085F0100085F0100084F
:100110005F0100085F0100085F0100085F0100083F
:100120005F0100085F0100085F0100085F0100082F
:10013000DFF80CD011F0A0FC004800478D2A000821
:10014000508900200648804706480047FEE7FEE742
:10015000FEE7FEE7FEE7FEE7FEE7FEE7FEE7FEE777
:100160000522000831010008AE48016841F0010194
:1001700001604168AC4A114041600168AB4A1140DE
:100180000160016821F480210160416821F4FE01D1
:1001900041604FF41F0181607047A2490A6822F450
:1001A00080320A600A6822F480220A60B0F5803F3B
:1001B00007D0B0F5802F03D1086840F4A020086074
:1001C0007047086840F4803008607047034600209C
:1001D0005909944A01290AD002290AD0516A03F028
:1001E0001F02012393400B4200D001207047116889
:1001F000F5E7116AF3E730B500244FF4A06531202C
:10020000FFF7E4FF641CAC4201D00028F7D0312096
:10021000FFF7DCFF08B1012030BD002030BD814A6E
:10022000116821F0F80141EAC00010607047804970
:10023000086070477B4B5A6822F47C1208431043D5
:10024000586070477A4908667047764A516821F0CD
:1002500003010143516070477248406800F00C0090
:100260007047704A516821F0F001014351607047B6
:100270006C4A516821F4E061014351607047694A5A
:10028000516821F4605141EAC00050607047654AEE
:1002900019B1517A014351727047517A81435172B9
:1002A00070476449086070475E4A516821F44041D4
:1002B000014351607047604900220A7001F820290B
:1002C000012805D0042802D1052081F820007047BC
:1002D000012081F820007047584908607047514953
:1002E0000A6A02430A6270475449443908607047F9
:1002F00010B54C4A516801F00C01514B39B3042937
:1003000027D0082927D00360516801F0F0010909BE
:100310004C4B5C5C0168E1404160546804F4E0646B
:10032000240A1C5D21FA04F48460546804F46054C7
:10033000E40A1B5DD940C160526802F44042920B4E
:10034000404B1B1F9A5CB1FBF2F1016110BD0360D1
:10035000DAE70360D8E7516801F47011536803F4D9
:100360008033022404EB914133B153689B0307D5DA
:10037000354B59430160C7E7334B59430160C3E72D
:100380002F4B59430160BFE7264A19B15169014318
:10039000516170475169814351617047214A19B1D8
:1003A00091690143916170479169814391617047FF
:1003B0001C4A19B1D1690143D1617047D1698143A8
:1003C000D1617047174A19B1D1680143D1607047B4
:1003D000D1688143D1607047124A19B11169014354
:1003E00011617047116981431161704713494039A8
:1003F000086070470E49C86470470A49C871704761
:100400000848416A41F0807141627047014600200E
:10041000044A92680A4200D001207047014988725C
:1004200070470000001002400000FFF8FFFFF6FEDA
:1004300000004242D8004242201002408004424262
:1004400000127A000400002000093D0010B59B490D
:10045000884209D101210420FFF7B4FF0021BDE843
:1004600010400420FFF7AEBF9549884209D1012111
:100470000820FFF7A7FF0021BDE810400820FFF784
:10048000A1BF9049884209D101211020FFF79AFFAE
:100490000021BDE810401020FFF794BF8A49884230
:1004A00009D101212020FFF78DFF0021BDE8104078
:1004B0002020FFF787BF8549884209D101214020CC
:1004C000FFF780FF0021BDE810404020FFF77ABF12
:1004D0007F49884209D101218020FFF773FF002165
:1004E000BDE810408020FFF76DBF7A4988420AD1ED
:1004F000841501212046FFF765FF2046BDE8104026
:100500000021FFF75FBF10BD10B501210846FFF7BE
:1005100059FF0021BDE810400120FFF753BF2DE92E
:10052000F0410022CC7804F00F03E40601D58C786A
:1005300023430C884FF00F0714F0FF0F4FF0010C0E
:100540001CD005680CFA02F40E882640A64211D190
:10055000960007FA06F825EA080503FA06F848EABD
:100560000505CE78282E02D0482E02D002E0446144
:1005700000E00461521C082AE4D305600A88FF2ABF
:100580001ED94568002202F108060CFA06F40E880E
:100590002640A64210D1960007FA06F825EA08057B
:1005A00003FA06F848EA0505CE78282E00D1446102
:1005B000CE78482E00D10461521C082AE3D345604E
:1005C000BDE8F0814FF6FF710180022181700421A6
:1005D000C17070470246002092680A4200D0012094
:1005E0007047806880B2704702460020D2680A4295
:1005F00000D001207047C06880B270470161704729
:10060000416170470AB10161704741617047C16043
:10061000704741F4803282618161826181698069C1
:10062000704710B52C4B1A684FF68074224042EA8E
:1006300000100843186010BD2849C8617047F0B524
:10064000254C002801DAE36900E06368C0F3034643
:10065000420D120185B2C0F301579540032F07D018
:10066000C2020CD50322B240934343F0706209E00A
:1006700023F07062636823F07063636002E0AB4351
:1006800043F0706201B12A43002801DAE261F0BD53
:100690006260F0BD10B58A07120F0F23934021F05E
:1006A00003040D4921448C689C438C608B68904006
:1006B00003438B6010BD0A49086070470008014081
:1006C000000C0140001001400014014000180140DE
:1006D000001C0140002001400000014000002042B9
:1006E000DC00204228490843284908607047F0B5DB
:1006F0000F23C278017801264FF0E027DAB1234AB0
:10070000126802F4E062C2F5E062120AC2F1040467
:10071000D3404578A54082781A402A4312011C4BE9
:10072000CA54007800F01F018E40400907EB80009A
:10073000C0F80061F0BD01F01F008640480907EBDA
:100740008000C0F88061F0BD124A114001430F489B
:10075000001F016070470D4A121D19B11168014355
:100760001160704711688143116070474FF0E021BC
:10077000042804D0086920F0040008617047086963
:1007800040F00400086170470000FA050CED00E03D
:1007900000E400E080FFFF1F374900200860091DCA
:1007A0000860091D0860091D086033493348143189
:1007B0000860704730B5304A8379016853B31368D5
:1007C0008B431360111D0B680468A3430B60017910
:1007D00011440B68046823430B60274C08342168DC
:1007E000036899432160231D19680568A9431960AE
:1007F0004179102905D011440A68006802430A6053
:1008000030BD216802681143216019680068014306
:10081000196030BD0079104402688A43026030BD1F
:100820000021016001710C224271817170471249EF
:1008300010310A6802430A607047014600200E4AE0
:10084000143212680A4200D0012070470A4914315C
:100850000860704701460020074A12680A40064BAC
:1008600014331B680B4202D0002A00D001207047CD
:10087000014914310860704700040140FFFF0F0078
:1008800010B5FE4988420AD1C41401212046FFF761
:1008900099FD2046BDE810400021FFF793BDB0F15F
:1008A000804F0CD0F649884213D101210220FFF776
:1008B00093FD0021BDE810400220FFF78DBD01210E
:1008C0000846FFF789FD0021BDE810400120FFF731
:1008D00083BDEC49884209D101210420FFF77CFD4A
:1008E0000021BDE810400420FFF776BDE6498842AC
:1008F00009D101210820FFF76FFD0021BDE810405C
:100900000820FFF769BDE149884209D10121102083
:10091000FFF762FD0021BDE810401020FFF75CBD2D
:10092000DB49884209D101212020FFF755FD002134
:10093000BDE810402020FFF74FBDD64988420AD1BC
:10094000441401212046FFF73DFD2046BDE810403C
:100950000021FFF737BDD04988420AD10121CC04DC
:100960002046FFF72FFD2046BDE810400021FFF78D
:1009700029BDCA4988420AD101210C052046FFF74A
:1009800021FD2046BDE810400021FFF71BBDC449F2
:1009900088420AD101214C052046FFF713FD20466D
:1009A000BDE810400021FFF70DBDBE49884209D1C6
:1009B00001214020FFF710FD0021BDE8104040203C
:1009C000FFF70ABDB849884209D101218020FFF70D
:1009D00003FD0021BDE810408020FFF7FDBCB349B6
:1009E00088420AD1841501212046FFF7F5FC2046F4
:1009F000BDE810400021FFF7EFBCAD4988420AD1A5
:100A000001210C042046FFF7DDFC2046BDE8104024
:100A10000021FFF7D7BCA74988420AD101214C0425
:100A20002046FFF7CFFC2046BDE810400021FFF72D
:100A3000C9BCA14988420AD101218C042046FFF794
:100A4000C1FC2046BDE810400021FFF7BBBC10BD33
:100A500030B50288894C8F4DA0420DD0A8420BD0F2
:100A6000B0F1804F08D0864B984205D0854B984214
:100A700002D0854B984203D122F070034A881A4372
:100A8000824B984206D0824B984203D022F44073A6
:100A9000CA881A4302808A8882850A880285A04211
:100AA0000AD0A84208D0824A904205D0814A90429A
:100AB00002D0814A904201D1097A018601218182C6
:100AC00030BD30B5028C22F001020284028C838892
:100AD000048B24F0700424F003050C882C4322F0CE
:100AE00002020D8915434A882A43644DA8420BD05F
:100AF000684DA84208D06E4DA84205D06D4DA84261
:100B000002D06D4DA8420FD122F008054A892A4330
:100B100022F004058A882A4323F4807323F40073A7
:100B20008D891D43CB892B4383800483C9888186AB
:100B3000028430BD30B5028C22F010020284028C97
:100B40008388048B24F4E04424F440750C88240644
:100B500045EA144422F020020D892D0542EA15458C
:100B60004A88120545EA1242444DA84202D0494D36
:100B7000A84217D122F080054A89120545EA12429F
:100B800022F040058A88120545EA124223F4806368
:100B900023F400638D89AD0443EA1545CB899B049A
:100BA00045EA134383800483C9880187028430BDEA
:100BB00030B5028C22F480720284028C8388848B8C
:100BC00024F0700424F003050C882C4322F40072F6
:100BD0000D892D0642EA15454A88120645EA124259
:100BE000264DA84202D02B4DA84217D122F4006511
:100BF0004A89120645EA124222F480658A88120662
:100C000045EA124223F4805323F400538D892D05C5
:100C100043EA1545CB891B0545EA1343838084834A
:100C2000C9888187028430BD30B5028C22F480529D
:100C30000284048C8288838B23F4E04323F4407580
:100C40000B881B0645EA134324F400550C8924073E
:100C500045EA14444D882D0744EA1545074CA04247
:100C600002D00C4CA04205D122F480448A8992051E
:100C700044EA124282808383C9881FE0002C01402D
:100C80000004004000080040000C0040001000403C
:100C90000014004000340140004C0140005001406D
:100CA0000054014000180040001C0040002000409B
:100CB000004001400044014000480140A0F84010BD
:100CC000058430BD828B22F440628283828B42EAAB
:100CD000012282837047F0B5048C24F4805404848C
:100CE000858B048C0E07360C25F47347120647EAF1
:100CF00012451A0745EA1242F64B98420ED0F64BBF
:100D000098420BD0B0F1804F08D0F44B984205D0F8
:100D1000F34B984202D0F34B984205D124F4005192
:100D2000314341F4805104E024F402430B4343F483
:100D3000805182830184F0BD828B22F00C02828379
:100D4000828B0A438283704770B5048C24F48074CC
:100D50000484858B048C0E06360C25F0F3051B05E8
:100D600042EA13432B43DB4A90420ED0DA4A9042C8
:100D70000BD0B0F1804F08D0D84A904205D0D84A65
:100D8000904202D0D74A904205D124F400713143F9
:100D900041F4807104E024F420620A4342F480713B
:100DA0008383018470BD028B22F440620283028B34
:100DB00042EA01220283704770B5048C24F01004CB
:100DC0000484068B048C0D052D0C26F473461B073A
:100DD00046EA1343120643EA1242BE4B98420ED033
:100DE000BD4B98420BD0B0F1804F08D0BB4B98421E
:100DF00005D0BB4B984202D0BA4B984205D124F0A3
:100E00002001294341F0100104E024F0A0030B432A
:100E100043F010010283018470BD028B22F00C02AA
:100E20000283028B0A430283704730B5048C24F09E
:100E300001040484058B048C25F0F3051B0542EAAC
:100E400013432B43A34A90420ED0A34A90420BD0A7
:100E5000B0F1804F08D0A14A904205D0A04A9042FC
:100E600002D0A04A904205D124F002020A4342F087
:100E7000010104E024F00A020A4342F00101038365
:100E8000018430BD70B505460C46924885420CD0B1
:100E90009148854209D0B5F1804F06D08F488542F0
:100EA00003D08F48854200D08E4820886188A28870
:100EB000238958B1042811D0082817D02846FFF7F5
:100EC0000AFFE1882846BDE87040FBE62846FFF7A8
:100ED000ACFFE1882846BDE870409EE72846FFF752
:100EE0006BFFE1882846BDE870405CE72846FFF7C5
:100EF0002BFFE1882846BDE870401DE72DE9F04151
:100F000007460C4600250126618801B90225A28802
:100F1000012A00D102262088238988B13846FFF7AC
:100F20004BFFE1883846FFF73EFF238932462946CA
:100F30003846FFF77AFFE1883846BDE8F0416CE7B4
:100F40003846FFF772FFE1883846FFF766FF2389CE
:100F5000324629463846FFF72FFFE1883846BDE87C
:100F6000F04120E710B50A884B88CC881A438B885B
:100F700023431A430B891A434B8989891A430A432D
:100F8000A0F8442010BD4FF6FF7181800021018040
:100F9000C1804180017270470021018041808180C1
:100FA000C180018141818181C1817047002101801F
:100FB000418001228280C18001817047002101802F
:100FC00041808180C180018141818181704721B14F
:100FD000018841F0010101807047018821F0010181
:100FE0000180704729B130F8441F41F4004101806D
:100FF000704730F8441FC1F30E01018070471AB1E9
:1010000082890A438281704782898A43828170473C
:10101000818270471143A0F8481070471AB1828945
:101020000A438281704782898A438281704701899D
:1010300021F0070101817047028922F070020A4302
:101040000281704700B503461846FFF7F5FF18897F
:1010500040F00700188100BD70B50D4604461146EA
:10106000602D0CD001222046FFF7DFFE29462046E6
:10107000FFF7E2FF208940F00700208170BD0122C8
:101080002046FFF799FEF1E710B50489E4B242EA81
:1010900003230B432343038110BD10B504462046B0
:1010A000FFF7F2FF208920F0070040F0070020F052
:1010B000700040F07000208110BD10B5044620463D
:1010C000FFF7E2FF208940F48040208110BD0185B8
:1010D00082827047002C014000340140000400402F
:1010E00000080040000C0040028822F070020A4311
:1010F0000280704770B50589048B068C25F00705C2
:101100000D434FF6FC410C4040F201110C4326F018
:10111000220642EA0311314305810483018470BD34
:10112000028B22F070020A4302837047028B22F482
:10113000E04242EA012101837047828B22F0700273
:101140000A4382837047828B22F4E04242EA012103
:101150008183704721B1018841F08001018070478F
:10116000018821F080010180704721B1818841F020
:10117000040181807047818821F0040181807047DB
:1011800021B1818841F0080181807047818821F078
:1011900008018180704721B1818841F0010181807F
:1011A0007047818821F0010181807047028B22F015
:1011B00008020A4302837047028B22F4006242EA6B
:1011C000012101837047828B22F008020A43828347
:1011D0007047828B22F4006242EA012181837047CA
:1011E000028B22F004020A4302837047028B22F42E
:1011F000806242EA012101837047828B22F004025F
:101200000A4382837047828B22F4806242EA012182
:1012100081837047028B22F080020A430283704769
:10122000028BC2F30E0242EA012101837047828BD6
:1012300022F080020A4382837047828BC2F30E023F
:1012400042EA012181837047028C22F002020A43A4
:1012500002847047028C22F008020A43028470471D
:10126000028C22F0200242EA011101847047028CB4
:1012700022F0800242EA011101847047028C22F4BC
:10128000007242EA012101847047028C22F400625C
:1012900042EA012101847047028C22F4005242EAA2
:1012A00001310184704710B501238B40048C9C43AD
:1012B0000484038C8A401343038410BD10B50423B7
:1012C0008B40048C9C430484038C8A401343038426
:1012D00010BD30B500F1180301248C40058CA543E6
:1012E000058479B108290DD0091F88B203EB50009D
:1012F000016821F4E04101600168120641EA1241EF
:10130000016030BD03EB5100016821F07001016004
:1013100001681143016030BD21B1018841F0020133
:1013200001807047018821F002010180704721B1DE
:10133000018841F0040101807047018821F0040117
:101340000180704721B1818841F080018180704720
:10135000818821F0800181807047028822F0080294
:10136000028002880A4302807047828822F070025D
:10137000828082880A4382807047028922F00702B5
:10138000028102890A4302817047028922F08002A9
:10139000028102890A4302817047818470478185F6
:1013A0007047818670470187704781877047A0F832
:1013B00040107047028822F44072028002880A437B
:1013C00002807047808E7047008F7047808F704713
:1013D000B0F840007047808C7047008D704702461F
:1013E0000020128A0A4200D001207047C9430182BE
:1013F000704702460020138A0B4092890A40002B56
:1014000002D0002A00D001207047C94301827047F2
:1014100010B5DD4988420AD101218C032046FEF730
:10142000D1FF2046BDE810400021FEF7CBBFD749D1
:1014300088420AD101214C042046FEF7CDFF204608
:10144000BDE810400021FEF7C7BFD14988420AD14C
:1014500001218C042046FEF7BFFF2046BDE8104066
:101460000021FEF7B9BFCB4988420AD10121CC0443
:101470002046FEF7B1FF2046BDE810400021FEF7F0
:10148000ABBFC54988420AD101210C052046FEF7B1
:10149000A3FF2046BDE810400021FEF79DBF10BD10
:1014A00030B585B004460D46A889208A4CF6FF71F8
:1014B0000840E98801432182A0894EF6F3110840D3
:1014C000A9882A8911436A8902431143A181A08A0C
:1014D0004FF6FF410840A9890143A1826846FEF703
:1014E00007FFA948844201D1039800E00298A1892E
:1014F000090408D500EBC00101EB00102968490080
:10150000B0FBF1F007E000EBC00101EB001029682F
:101510008900B0FBF1F06422B0FBF2F109010B0984
:101520006FF018056B4300EB8300A3891D044FF097
:10153000320307D503EBC000B0FBF2F000F0070068
:10154000084306E003EB0010B0FBF2F000F00F00E0
:101550000843208105B030BD4FF4165101600021D1
:101560008180C18001810C2242818181704710B548
:10157000038A4FF2FF0213400A884C8822438C886A
:10158000C9880C4322431A43028210BD0021018006
:1015900041808180C180704721B1818941F400512F
:1015A00081817047818921F400518181704710B594
:1015B00040F66A13C1F3421301F01F040121A14058
:1015C000012B07D0022B07D014303AB102680A432E
:1015D000026010BD0C30F8E71030F6E702688A436D
:1015E000026010BD1AB1828A0A4382827047828AE1
:1015F0008A4382827047028A22F00F020282028AA4
:101600000A4302827047828922F4006282818289C1
:101610000A438281704721B1818941F002018181B1
:101620007047818921F0020181817047028A22F08E
:1016300020020282028A0A430282704721B1018A93
:1016400041F4804101827047018A21F48041018286
:101650007047C1F30801818070478088C0F308009B
:101660007047818941F0010181817047028BD2B2BC
:101670000283028B42EA012101837047028B02F44C
:101680007F420283028B0A430283704721B1818A21
:1016900041F0200181827047818A21F020018182FE
:1016A000704721B1818A41F0100181827047818A9F
:1016B00021F010018182704721B1818A41F0080137
:1016C00081827047818A21F008018182704721B1AF
:1016D000818941F40041818170478189C1F30E0104
:1016E0008181704721B1818A41F400618182704714
:1016F000818A21F4006181827047828A22F004028B
:101700008282828A0A438282704721B1818A41F0B3
:10171000020181827047818A21F002018182704733
:101720000246002012880A4200D0012070478A0534
:10173000C9430180704770B5002440F66A12C1F3B6
:10174000421301F01F05012606FA05F2012B0CD009
:10175000022B0DD0838A1340090A8E400088304046
:101760000BB100B10124204670BD83891340F3E71B
:10177000038A1340F0E740F66A120A0A01219140F9
:10178000C943018070470000003801400044004018
:1017900000480040004C00400050004010B5D049C7
:1017A00088420AD1441501212046FEF70BFE20464F
:1017B000BDE810400021FEF705BECA4988420AD1A3
:1017C000041501212046FEF7FDFD2046BDE810402E
:1017D0000021FEF7F7BDC44988420AD10121CC039C
:1017E0002046FEF7EFFD2046BDE810400021FEF741
:1017F000E9BD10BD10B54268BC4B1A400C790B68AE
:1018000042EA0422134343608268B94B1A40D1E98B
:10181000024323434C7942EA440213438360C26A81
:1018200022F47002097C491EC9B242EA0151C16228
:1018300010BD00210160017141718160C160012111
:101840000174704721B1816841F0010181607047E6
:10185000816821F001018160704721B1816841F404
:10186000807181607047816821F480718160704768
:10187000C9B21AB142680A434260704742688A435B
:1018800042607047816841F00801816070470146FD
:1018900000208968090700D501207047816841F060
:1018A000040181607047014600208968490700D51E
:1018B0000120704721B1816841F4A0018160704727
:1018C000816821F4A0018160704701460020896889
:1018D000490200D501207047426822F46042491E47
:1018E00042EA41314160704721B1416841F40061F1
:1018F00041607047416821F400614160704770B5F4
:10190000072609290AD9C568A1F10A0404EB440491
:10191000A640B543A3401D43C56007E0056901EB40
:101920004104A640B543A3401D4305611F23072A78
:1019300009D2446B521E02EB820293409C439140B9
:101940000C43446370BD0D2A09D2046BD21F02EB15
:10195000820293409C4391400C43046370BDC46A6F
:101960000D3A02EB820293409C4391400C43C462C7
:1019700070BD21B1816841F4801181607047816838
:1019800021F4801181607047C06C80B27047544868
:101990004C300068704721B1416841F4806141607A
:1019A0007047416821F480614160704721B141680E
:1019B00041F4805141607047416821F48051416099
:1019C0007047826822F4E0420A438260704721B186
:1019D000816841F4004181607047816821F40041D1
:1019E0008160704721B1816841F4021181607047C4
:1019F000816821F4021181607047014600208968E6
:101A0000890200D50120704770B5072609290AD937
:101A1000C568A1F10A0404EB4404A640B543A34001
:101A20001D43C56007E0056901EB4104A640B543CD
:101A3000A3401D430561836BC3F30154121B921C29
:101A400002EB82021F249440A34391400B43836323
:101A500070BD826B22F44012491E42EA015181633B
:101A600070470844026070470844806A80B270473B
:101A70004268204B1A400A434260704741628262CA
:101A80007047426822F01F020A43426070471449BF
:101A9000083120B1086840F4000008607047086809
:101AA00020F40000086070470246002012680A42D5
:101AB00000D001207047C9430160704710B502464D
:101AC00000200B0A5468C9B20C401168194202D0B8
:101AD000002C00D0012010BD090AC94301607047E5
:101AE0000024014000280140003C0140FFFEF0FFBF
:101AF000FDF7F1FFFFFD3FFF01684FF6FE72114059
:101B000001600021016041608160C1607149714ADA
:101B10000839904204D1486840F00F00486070478F
:101B20006C4A1432904204D1486840F0F00048609A
:101B30007047684A2832904204D1486840F4706087
:101B400048607047634A3C32904204D1486840F490
:101B50007040486070475F4A5032904204D14868F4
:101B600040F47020486070475A4A6432904204D171
:101B7000486840F4700048607047564A7832904296
:101B800004D1486840F0706048607047524A111FA5
:101B9000904204D1086840F00F00086070474E4A38
:101BA0001432904204D1086840F0F0000860704799
:101BB000494A2832904204D1086840F470600860B5
:101BC0007047454A3C32904204D1086840F4704066
:101BD00008607047404A50329042FAD1086840F499
:101BE00070200860704730B5026847F6F0739A437A
:101BF0000C6A8B682343D1E904452C4323438C6949
:101C00002343CC6923434C6A23438C6A2343134305
:101C10000360CA6842600A6882604968C16030BD7A
:101C20000021016041608160C160016141618161A9
:101C3000C161016241628162704721B1016841F076
:101C400001010160704701684FF6FE7211400160AA
:101C500070471AB102680A430260704702688A43FB
:101C60000260704741607047406880B2704702462A
:101C70000020D10003D518490839096802E0154948
:101C800008390968114200D001207047C10003D50E
:101C90001149091F086070470E49083948607047AC
:101CA00002460020D10003D50B490839096802E03B
:101CB000084908390968114200D001207047C10065
:101CC00003D50549091F0860704702490839486073
:101CD000704700000800024008040240FE4A1168F4
:101CE00001F03801014311607047FB490A6822F096
:101CF00008020A600A6802430A607047F6490A68E7
:101D000022F010020A600A6802430A607047F24833
:101D1000F2494160F24941607047EF48EF49416044
:101D2000EF4941607047EC48016941F08001016171
:101D30007047E948016941F0800101617047042062
:101D4000E549CA68D20701D001207047CA68520726
:101D500001D502207047C968C906FBD5032070472A
:101D600000B50346FFF7EBFF02E0FFF7E8FF5B1E5D
:101D7000012801D1002BF8D1002B00D1052000BD96
:101D800070B505464FF430263046FFF7E9FF0428CA
:101D900011D1D14C206940F00200206165612069B9
:101DA00040F0400020613046FFF7DAFF216941F63C
:101DB000FD721140216170BD30B54FF430252846C9
:101DC000FFF7CEFF042810D1C34C206940F0040077
:101DD0002061206940F0400020612846FFF7C0FFE5
:101DE000216941F6FB721140216130BD00B5034607
:101DF000FFF7A5FF02E0FFF7A2FF5B1E012801D15C
:101E0000002BF8D1002B00D1052000BD30B54FF4D8
:101E100030252846FFF7EAFF042810D1AE4C206990
:101E200040F004002061206940F040002061284615
:101E3000FFF7DCFF216941F6FB721140216130BDE3
:101E40000020A549C969890700D50120704770B5F0
:101E5000A525FFF7F5FF00B100254FF430263046E9
:101E6000FFF77EFF042818D19B4C9C48A0609C483B
:101E7000A060206940F020002061206940F040000F
:101E800020613046FFF76CFF41F6EF76042805D05D
:101E9000052802D021693140216170BD206941F6D9
:101EA000DF7108402061206940F0100020618D48FA
:101EB00005804FF40050FFF753FF0528EDD021694E
:101EC0003140216170BD2DE9F04105460E464FF4C9
:101ED00000584046FFF744FF04280FD17E4C20698C
:101EE00040F0010020612E804046FFF739FF41F6A7
:101EF000FE77042804D0216939402161BDE8F081D2
:101F0000300C68804046FFF72BFF21693940216182
:101F1000F4E7F0B506460D464FF400573846FFF794
:101F20001FFF04280CD16C4C206940F00100206197
:101F300035803846FFF714FF2169BA1E1140216130
:101F4000F0BDF0B505460E464FF400573846FFF792
:101F500007FF042813D1604C6048A0606048A0606F
:101F6000206940F0100020612E803846FFF7F8FE0F
:101F7000052804D0216941F6EF7211402161F0BDBE
:101F80002DE9F043C043C4B2C0F30725C0F30746B0
:101F9000070E4FF400594846FFF7E2FE04283CD1F3
:101FA000DFF834814D49C8F808104D49C8F80810C9
:101FB000D8F8101041F01001C8F81010FF2C05D00F
:101FC0004848083004804846FFF7CAFE042807D175
:101FD000FF2D05D043480A3005804846FFF7C0FE74
:101FE000042807D1FF2E05D03E480C300680484615
:101FF000FFF7B6FE042807D1FF2F05D039480E3071
:1020000007804846FFF7ACFE052806D0D8F8101028
:1020100041F6EF721140C8F81010BDE8F08370B5BA
:1020200005464FF430263046FFF79AFE042818D1B3
:10203000294C2A48A0602A48A060206940F020006E
:102040002061206940F0400020613046FFF788FEA3
:1020500041F6DF71042805D0052802D022690A4024
:10206000226170BD206908402061206940F01000A5
:1020700020611C4815B10021018001E0A5210180EB
:102080003046FFF76DFE0528EBD0216941F6EF726F
:102090001140216170BD2DE9F04106460D461746FD
:1020A0000D4C0E48A0600E48A0604FF4005840460A
:1020B000FFF756FE04281DD1206940F01000206172
:1020C0003D4308493543891C45F0F80008804046E7
:1020D000FFF746FE052807E0002002402301674580
:1020E000AB89EFCD00F8FF1F04D0216941F6EF72F4
:1020F0001140216102E71D48C069800870471B48F4
:10210000006A7047002019490968890600D5012036
:102110007047164A19B1116901431161704711697D
:1021200081431161704701460020104A012904D003
:10213000D2680A4200D001207047D169C907FBD09C
:10214000012070470949C860704704200749CA68E0
:10215000D20701D001207047CA68520701D502207A
:102160007047C968C906FBD50320704700200240AC
:1021700000204E490A6842F480320A604FF4A0639E
:102180000A6802F40032401C0AB99842F8D1086883
:10219000800301D5012000E00020012830D144480F
:1021A000026842F010020260026822F0030202603C
:1021B000026842F00102026048684860486848606E
:1021C000486840F480604860486820F47C104860AB
:1021D000486840F488104860086840F080700860E3
:1021E00008688001FCD5486820F003004860486812
:1021F00040F0020048604868C0F381000228FAD12C
:102200007047B5E710B52948016841F00101016048
:102210004168284A114041600168274A1140016025
:10222000016821F480210160416821F4FE014160D0
:102230004FF41F018160FFF7E4FF20494FF0006079
:10224000086010BD10B5194A506800F00C011C4B15
:102250001C4871B104290ED008290ED003605168C2
:10226000184AC1F30311121D515C0268CA40026092
:1022700010BD0360F3E70360F1E7516801F47011EA
:10228000536803F48033022404EB914133B1536863
:102290009B0307D50C4B59430160E0E70A4B5943B8
:1022A0000160DCE7064B59430160D8E700100240AB
:1022B000002002400000FFF8FFFFF6FE08ED00E0FE
:1022C00000127A001400002000093D0008B5FEA0AD
:1022D000006800900024DFF8F493FD4EFD4FDFF816
:1022E000F883FE4D4FF47A7A4FF4FA7B641CE4B223
:1022F00099F80000012829D1052C27D9002403F0E2
:1023000080F81F21B1EBD02F0BD1C043401C80B20D
:102310000FF031F90022F24B0FF029F80FF062F9BB
:1023200007E00FF028F96FF003020FF0FFF80FF04D
:1023300059F9EC49884206DA0FF03EF902460B469D
:10234000E9A00FF00BFC504600F0C9FD30780128E1
:1023500002D0022807D00DE0288802F000F850468D
:1023600000F0BDFD06E00221288803F0C9FA5046BE
:1023700000F0B5FD3878012802D0022807D00DE022
:10238000288802F01AF8504600F0A9FD06E0022164
:10239000288803F0FFFA504600F0A1FD98F80000ED
:1023A000012802D0022807D00DE0288802F00BF89F
:1023B000504600F094FD06E00221288803F042FB1D
:1023C000504600F08CFD584600F089FD8EE74FF432
:1023D0008076C74FC74DC84C11E031463846FEF7EE
:1023E0000DF92878400000F07AFD31463846FEF7B6
:1023F00007F9012000F073FD0A2000F070FD20783D
:102400000028F9D0E9E7BD4EBD4D3078B0B10024C9
:1024100004212846FEF7F2F8642000F047FD04216D
:102420002846FEF7EDF8642000F040FD641CE4B29D
:10243000322CEDD30A2000F052FDE6E7142000F024
:102440004EFDE2E70024AF4D0326287828B101288D
:1024500017D0142000F043FDF7E70C2C0BD101F04E
:10246000CAFB01F06AFC287801F07CFD142000F022
:1024700036FD00242E70204601F074FB641CE4B28B
:10248000E3E70C2C0BD101F0B6FB01F056FC2878E9
:1024900001F068FD142000F022FD00242E7020467B
:1024A00001F08CFB641CE4B2CFE70EB596A0006887
:1024B0000290DFF82882954E844D4FF00209DFF834
:1024C00050A200248AF800400A2000F008FD91483C
:1024D00001AA002100680CF077FA01278AF8007041
:1024E0008D480178192978D010DCA1F10301162953
:1024F0003BD2DFE801F02F3B3A474A4D5053565943
:102500005C613A3A3A65A7B6D2E7E6E5822975D02A
:1025100014DC1E2973D008DC1A2971D01B2970D055
:102520001C296FD01D2920D16FE123296BD02429CC
:102530006AD0802969D08129F5D18DE183390E29AE
:10254000D6D2DFE801F0F1F0EFEEEDECEB12121273
:10255000121212C0DFF8A4A18AF8007001F034FE54
:10256000052000F0BCFC8AF80040B8E1DFF88CA13F
:102570008AF8007001F032FE052000F0B0FC8AF805
:102580000040ACE101F037FEA9E101F03EFEA6E11A
:1025900001F045FEA3E101F04CFEA0E101F053FE85
:1025A0009DE101F05AFE9AE101F061FE97E1524887
:1025B000047001F066FE92E1707801F071FE8EE128
:1025C000707858B101280BD002280BD003281DD0F9
:1025D000042827D0052831D081E1F7E02F707EE173
:1025E0002C707CE12F70B078F17800EB800001EB6B
:1025F0004000A8F8000001F06BFE70E12FE10FE150
:10260000E9E0F1E0FBE011E119E122E12F70B0789F
:10261000F17800EB800001EB4000A8F8000001F029
:1026200066FE5CE12C70B078F17800EB800001EB85
:102630004000A8F8000001F073FE50E12C7001F09A
:1026400094FE4CE102F08AFFB078F17800EB800054
:1026500001EB4000A8F800001D48077085F80090C5
:102660003DE11C480078012807D01B48007801286C
:1026700003D02C7001F079FE04E003202870144888
:1026800080F8009041208DF808008DF809402C70EA
:10269000032102A80CF046FF21E1032028704FF02F
:1026A000000B022002F0ADFE02F0F0FE8246AAF11D
:1026B0000B00B0F52C7F3BD90A2000F010FC34E071
:1026C0007BE076E051E005E12100FF0030000020D2
:1026D00033000020310000203200002034000020B0
:1026E0000000B0BF0000A0423A252E31663A00003B
:1026F000000801402F0000202E000020360000209E
:1027000000140140450000200000FF0014340020A8
:102710002C0000203C0000202D000020D4E0D0E060
:10272000CAE0BFE0B4E0AEE0A3E0BBF1640FB8D311
:10273000B078F17800EB800001EB4000A8F80000D1
:10274000824508D24FF0010002F042FFE5480770D1
:10275000E5480470C3E007D94FF0030002F038FFEA
:10276000E1480770DF480470B9E0E04800780128CC
:1027700003D02C7001F0F9FD11E0DA48017801294D
:1027800004D0D9480178012905D008E085F80090E7
:1027900080F8009003E085F8009080F800906120B8
:1027A0008DF808008DF80940032102A80CF0BAFE4C
:1027B00095E0707801F00DFE91E0B178707801F04D
:1027C00019FE4FF4FA7000F08AFB88E0B178707857
:1027D00001F027FE83E0B178707801F030FE4FF40D
:1027E000FA7000F07CFB7AE001F04EFEC04F20460C
:1027F0003C7001F053F9387801F095F96FE001F081
:102800004DFEBB490320087069E001F051FEB84C51
:102810003846277001F042F9207801F084F95EE033
:1028200001F050FEB2490320087058E0B17870788A
:1028300001F052FE4FF4FA7000F051FB4FE0F278D5
:10284000B178707801F056FE4FF4FA7000F047FB53
:1028500045E001F05DFE42E001F079FE3FE00AF064
:102860006DFE0446707801F08EFE20460AF06AFE86
:1028700035E02C70707900903379F278B178707807
:1028800001F04BFF2BE0B178707801F0F2FF26E009
:102890002C70707900903379F278B178707802F00A
:1028A00016F81CE02C70707900903379F278B178CA
:1028B000707802F0D0F812E0B178707802F0B1F9D7
:1028C0000DE002F005FA0AE02C70B178707802F0A1
:1028D000A1FA04E02C70B178707802F0DDFA03F010
:1028E0002DF9ECE508B583A000680090824C834D7B
:1028F000297851B3207850B10128F9D1804801F0EE
:102900001DF800F0F4FF142000F0E9FAF0E77C482D
:1029100002F02FFB022811D0012813D00028E7D1A4
:10292000774800780328E3D10221684601F006F8D1
:1029300000F0DDFF142000F0D2FAD9E7142000F0F7
:10294000CEFAD5E700F0D3FFD2E7142000F0C7FAA3
:10295000CEE79AB0642101A80EF023FC012002F01A
:102960007DFC684C217801432170022002F076FC46
:10297000217841EA4000207002F0AAF978200AF09C
:1029800012FC614D614E624F624C642101A80CF053
:10299000B7FD90B3C1B25C4A01A803F0B3F8387830
:1029A000012811D05C480178574802F0E2FA022869
:1029B0000ED0012810D00028E7D13178207881424C
:1029C0000DD1287820700DE0142000F088FADCE7A3
:1029D000142000F084FAD8E703F0B0F8D5E730709F
:1029E000287820704D492078087038780028CCD19C
:1029F0004B4800680CF078F8C7E7FFE7142000F0B8
:102A00006EFAC2E710B500200BF061FF4449086080
:102A10000AF0A5FF0AF092FD04460323414A002173
:102A2000AFF2D1000CF05CF904233F4A0021AFF271
:102A30004B100CF055F906233C4A0021AFF2FB5035
:102A40000CF04EF905233A4A0021AFF2A1500CF0E8
:102A500047F90923374A0021AFF28F700CF040F993
:102A60000823354A0021AFF261600CF039F90723E1
:102A7000324A0021AFF2A9600CF032F90C200CF0C0
:102A80005BFB2046BDE810400AF05CBD08B500F0D5
:102A90008BF800F0BDF800F0ECF900200346024688
:102AA00000904FF41651264800F0EEFE01231A461E
:102AB00025214FF4A06000F0A2F90D48007801F044
:102AC00032F803F048F802F0A1FA0AF08CFE0C2369
:102AD0001C4A0021AFF2D3000CF002F90AF02CFFDF
:102AE000002008BD3100002032000020330000200B
:102AF000450000203000EE002A00002042000020A7
:102B0000E81F00202B0000201434002029000020A2
:102B10002C00002028000020520000202D00002062
:102B20003C000020E4110020E4090020E40700201C
:102B3000E4190020E41B0020E41D0020E41F002015
:102B400000380140E405002010B5FDF70DFB012021
:102B5000FDF76DFB2120FDF739FB0028FAD000209E
:102B6000FDF77FFB0020FDF78AFB4FF48060FDF747
:102B70007FFB0220FFF7B2F81020FFF7BFF84FF4F9
:102B800020110020FDF756FB0120FDF75BFB3920EB
:102B9000FDF71CFB0028FAD00220FDF756FBFDF7DD
:102BA0005BFB0828FBD110BD10B5FFF7CDFF01215D
:102BB0000420FDF7F3FB01210820FDF7EFFB0121C5
:102BC0001020FDF7EBFB01212020FDF7E7FB0121A1
:102BD0000846FDF7E3FB01218C032046FDF7DEFBF1
:102BE00001214802FDF7DAFB2046FDF75DFB0121DC
:102BF0000420FDF7DDFB0120FDF753FB0121C80593
:102C0000FDF7D6FB0121BDE810400846FDF7BCBB2F
:102C10002DE9F84F4FF40077ADF8007003248DF8DC
:102C200002404FF018098DF80390DFF8FCA26946C6
:102C30005046FDF774FC7800ADF800008DF80240B6
:102C400004268DF8036069465046FDF768FCFF20B6
:102C5000ADF800008DF8024000208DF803006946B1
:102C60005046FDF75CFC4FF48078ADF800808DF89D
:102C7000024010258DF8035069465046FDF74FFC81
:102C800041465046FDF7BCFCE002ADF800008DF86F
:102C900002408DF8039069465046FDF740FC4FF224
:102CA0000700ADF800008DF802408DF80350DFF802
:102CB0007C9269464846FDF732FC01214846FDF703
:102CC0009DFC29024846FDF79BFC69024846FDF73A
:102CD00097FCA9024846FDF793FC4FF40048414693
:102CE0004846FDF78DFC6020ADF800008DF80240ED
:102CF0008DF8035069464846FDF711FC20214846EF
:102D0000FDF77EFC40214846FDF77AFC2020ADF817
:102D100000008DF802408DF8036069464846FDF7D3
:102D2000FEFBADF800708DF802408DF80350694647
:102D30004846FDF7F4FB01214046FDF780FCADF865
:102D400000408DF802408DF80350DFF8E4816946B9
:102D50004046FDF7E4FBA002ADF800008DF802400C
:102D60008DF8036069464846FDF7D9FB4FF6FF70C2
:102D7000ADF800008DF802408DF8036069466D489B
:102D8000FDF7CDFBADF800608DF802408DF80350E3
:102D900069464046FDF7C3FBADF800708DF8024070
:102DA00014208DF8030069464046FDF7B8FBBDE8E6
:102DB000F88F10B56FF00400FDF7D8FC4FF0E0205D
:102DC00042F228314161002181610321016110BD7E
:102DD0001CB52020FDF74CFD05210020FDF75AFC15
:102DE0002020009000208DF804000C208DF80500B4
:102DF00001208DF806006846FDF7DCFC1CBDF8B527
:102E00000C4615461E46FDF76DFC8DF800408DF80A
:102E100001508DF8026001208DF803006846FDF72F
:102E200066FCF8BD10B5FDF79FF94348016841F015
:102E30000101016041684160416841F42011416035
:102E4000416841F090014160016841F0807101608A
:102E500001688901FCD5416821F0030141604168A6
:102E600041F0020141604168C1F381010229FAD1B8
:102E700010BD10B56FF00400FDF778FC2F48016815
:102E80002F48B1FBF0F12F48017041F288325143D5
:102E9000052242804FF0E020026942F00202026106
:102EA0004161016941F00101016110BD70B500216E
:102EB0004FF0E0256C69234A12785043AB69AA6948
:102EC0009A42FCD003D2A3EB0203194403E0A4EB23
:102ED00002063344194413468142F0D370BD70B5E5
:102EE00004461948007801280CD1164D68888442A0
:102EF00003D3B4FBF0F00CF0D3F96888B4FBF0F125
:102F000000FB11444FF47A706043BDE87040CDE798
:102F100038B50446002000900094012168460CF06A
:102F200001FB204638BD000000080140000C0140B4
:102F30000014014000100140001002401400002065
:102F400000127A00380000206702002070472DE947
:102F5000F0410024DFF8B48040F225514046FEF7EE
:102F6000EAFB002817D02A4E2A4F2B4D3078322802
:102F700007D30021317039702955641CE4B2322C1A
:102F8000FAD34046FEF769FB397868543078401C24
:102F90003070491C3970BDE8F0817047FEE7FEE7EC
:102FA000FEE7FEE77047704710B50AF033FC0AF001
:102FB000EEFCBDE810400AF043BC10B52020FDF740
:102FC00049FC01281DD12020FDF752FC0A20FFF703
:102FD00086FF20211148FDF7FDFA002811D1104C81
:102FE00020212046FDF700FB28B12046BDE8104017
:102FF0002021FDF705BB2046BDE810402021FDF74C
:10300000FDBA10BD7047704770470000003801409E
:103010004200002043000020E81F0020000C014077
:10302000000801402DE9F04707460024DFF87084CE
:1030300001214046FDF7E4FA20214046FDF7CAFA97
:1030400038B102214046FDF7DBFA64254FF4806970
:1030500016E001214046FDF7D1FA0020BDE8F087D7
:1030600004214046FDF7CCFA3846FFF738FF04212B
:103070004046FDF7C3FA3846FFF731FF6D1EADB28B
:1030800020214046FDF7A6FA30B149464046FDF7FB
:10309000A1FA08B9002DE3D11420FFF720FF202169
:1030A0004046FDF797FA70B1FE4E95B1494640464D
:1030B000FDF790FA002859D002214046FDF79EFA0C
:1030C00040F25D2525E001214046FDF797FA0020FA
:1030D000C4E701214046FDF791FA307840F0040042
:1030E00030700120BAE704214046FDF789FA3846DE
:1030F000FFF7F5FE04214046FDF780FA3846FFF75A
:10310000EEFE6D1EADB249464046FDF763FA98B13A
:10311000002420214046FDF75DFA08B1002DE2D1E0
:10312000322C0ED901214046FDF768FA307840F084
:1031300008003070022091E7641CA4B2322CE8D958
:10314000EEE74DB101214046FDF758FA307820F006
:103150001C003070002081E701214046FDF74EFA47
:10316000307840F010003070032077E701214046AE
:10317000FDF744FA307820F01C00307000206DE735
:103180002DE9F04105461446642001FB00F6C44FCA
:1031900001213846FDF734FA25B102213846FDF702
:1031A0002DFA03E002213846FDF72AFA012D04D159
:1031B00020213846FDF70EFA48B1012D0DD095B308
:1031C00001213846FDF71AFA0220BDE8F0810121FD
:1031D0003846FDF713FA0120F7E73D460FE00421DA
:1031E0002846FDF70DFA3046FFF760FE0421284619
:1031F000FDF704FA3046FFF759FE641EA4B2202101
:103200002846FDF7E7F908B1002CE8D12CB10121DF
:103210002846FDF7F3F90120D7E701212846FDF7FD
:10322000EDF90020D1E7FFE73D460FE004212846F5
:10323000FDF7E6F93046FFF739FE04212846FDF791
:10324000DDF93046FFF732FE641EA4B2002CEDD14A
:1032500001212846FDF7D2F90020B6E72DE9F04715
:1032600007460E46142401250120FFF7DBFE8046A9
:10327000DFF82C9201214846FDF7C2F902214846A9
:10328000FDF7BEF90FE004214846FDF7B9F901202A
:10329000FFF725FE04214846FDF7B0F90120FFF7AE
:1032A0001EFE641EA4B2002CEDD10A2437E0012DCD
:1032B00011D025B326E004214846FDF7A1F9384690
:1032C000FFF70DFE04214846FDF798F93846FFF751
:1032D00006FE641EA4B2002CEDD1002512E00421EC
:1032E0004846FDF78DF93846FFF7F9FD04214846B9
:1032F000FDF784F93846FFF7F2FD641EA4B2002CF6
:10330000EDD10125761EF6B20A2425B102214846E8
:10331000FDF774F903E002214846FDF771F9002E2C
:10332000C5D101214846FDF769F9404696E62DE9E9
:10333000F05F0F464FF41674642582467FB10C2F60
:103340000DD860B10120FFF76DFEDFF854B140B138
:1033500001215846FDF752F90220BDE8F09F0120F7
:10336000FBE71420FFF7BBFD01215846FDF748F9A4
:1033700002215846FDF744F94FF4806811E004211A
:103380005846FDF73DF95046FFF7A9FD0421584680
:10339000FDF734F95046FFF7A2FD641EA4B26D1E7E
:1033A000ADB241465846FDF715F908B9002DE6D1F2
:1033B000DFF8F0900DB100263BE001215846FDF703
:1033C0001DF999F8000040F0040089F8000003207E
:1033D000C3E7002504215846FDF712F95046FFF7D0
:1033E0007EFD04215846FDF709F95046FFF777FDA9
:1033F000641EA4B26D1CEDB2072DEBD30FE00421C7
:103400005846FDF7FDF85046FFF769FD0421584680
:10341000FDF7F4F85046FFF762FD641EA4B2414682
:103420005846FDF7D7F808B1002CE8D14CB1761C0E
:10343000F6B2BE42CDD301215846FDF7DFF8002099
:103440008BE701215846FDF7D9F899F8000040F0C4
:10345000100089F8000004207FE72DE9F0470646B8
:10346000114D6878012878D095F900004FF480510B
:103470000B4CCF004FF400584FF4804908281BD262
:10348000DFE800F0041B2B3B4B5B6C7C2046FDF718
:10349000B5F839462046FDF7B3F84146204605E029
:1034A000000C01402B00002040000020FDF7A8F890
:1034B00049462046FDF7A4F86FE02046FDF79EF848
:1034C00039462046FDF79AF841462046FDF798F820
:1034D00049462046FDF794F85FE02046FDF790F856
:1034E00039462046FDF78AF841462046FDF788F820
:1034F00049462046FDF784F84FE02046FDF780F866
:1035000039462046FDF77AF841462046FDF776F821
:1035100049462046FDF774F83FE02046FDF770F875
:1035200039462046FDF76CF841462046FDF766F81F
:1035300049462046FDF764F82FE02046FDF760F885
:1035400039462046FDF75CF841462046FDF756F81F
:1035500049462046FDF752F81FE027E02046FDF7D8
:103560004FF839462046FDF74BF841462046FDF717
:1035700047F849462046FDF741F80EE02046FDF7A2
:103580003DF839462046FDF73BF841462046FDF719
:1035900037F849462046FDF731F846B12878401CF7
:1035A00040B22870072801DD0020287056E52878F1
:1035B000401E40B228700028F8DA072028704DE538
:1035C0002DE9F35F0E464FF4FA74AD4D4FF4004809
:1035D000AF144FF400594FF4804A4FF4006B17E0DA
:1035E0000098FFF73AFF3046FFF779FC3946284646
:1035F000FDF706F841462846FDF702F849462846F9
:10360000FCF7FEFF51462846FCF7FAFF641EA4B201
:1036100059462846FCF7DEFF08B1002CE0D1994856
:1036200034B1017821F0200101700020BDE8FC9F39
:10363000017841F0200101700120F7E72DE9F05FEA
:1036400083460D461646002429465846FFF7B8FF24
:1036500008B1012081E6092E18D2DFE806F017052F
:1036600007090B0D0F12150032240FE064240DE042
:1036700096240BE0C82409E0FA2407E04FF496747E
:1036800004E04FF4AF7401E04FF4C8744FF4805776
:103690007B4E4FF400484FF400594FF4804A17E036
:1036A0005846FFF7DAFE2846FFF719FC3946304640
:1036B000FCF7A6FF41463046FCF7A2FF49463046DC
:1036C000FCF79EFF51463046FCF79AFF641EA4B2F9
:1036D000002CE5D1002040E62DE9F047064689465A
:1036E00001224FF41674642505210120FFF7A6FF7F
:1036F00008B10120B2E40120FFF794FC08B10120D9
:10370000ACE4DFF87C8101214046FCF779FF02211F
:103710004046FCF775FF4FF4806711E004214046F6
:10372000FCF76EFF0120FFF7DAFB04214046FCF7AF
:1037300065FF0120FFF7D3FB641EA4B26D1EEDB23E
:1037400039464046FCF746FF08B9002DE6D1BDB129
:10375000E6B10026002504214046FCF751FF022077
:10376000FFF7BDFB04214046FCF748FF0220FFF7AE
:10377000B6FB641EA4B26D1CEDB2072DEBD352E074
:1037800001214046FCF73AFF022067E400260025AD
:1037900004214046FCF734FF0120FFF7A0FB042181
:1037A0004046FCF72BFF0120FFF799FB641EA4B2F3
:1037B0006D1CEDB2072DEBD30FE004214046FCF762
:1037C0001FFF0120FFF78BFB04214046FCF716FF8B
:1037D0000120FFF784FB641EA4B239464046FCF783
:1037E000F9FE08B1002CE8D13CB1304600F0BAF93E
:1037F000761CF6B20C2ECAD325E001214046FCF718
:10380000FDFE03202AE404214046FCF7F9FE0220D5
:10381000FFF765FB04214046FCF7F0FE0220FFF7AE
:103820005EFB641EA4B239464046FCF7D3FE08B1E5
:10383000002CE8D1A4B14946304600F019FC761CB2
:10384000F6B20C2E86D301214046FCF7D7FE0220AB
:10385000FFF745FB0120FFF7E5FB38B1012037E416
:1038600001214046FCF7CAFE032031E40521012076
:10387000FFF7A6FE08B104202AE4002028E4000097
:10388000000C01402B0000207FB50546089C0091EC
:10389000ADF80420ADF80630ADF808400021ADF8D1
:1038A0000C100C21ADF80A1069462846FDF7F8FD0A
:1038B000012240F225512846FDF779FE01212846D4
:1038C000FDF76AFE40212846FDF731FF7FBD70B548
:1038D000264CA07848B10025A5700A20FFF7FFFA12
:1038E000A07800B1A570002070BD012070BD00203F
:1038F0001E4A0021117051701D4A1154401CC0B263
:103900003228FAD37047194800780B2801D30020D9
:1039100070470120704770B50024154D154E295D84
:103920003046FDF796FE80213046FDF7F9FE00286F
:10393000F9D0641CE4B20B2CF1D370BD2DE9F04139
:1039400005460E4600240B4F0BE0295D3846FDF777
:1039500080FE80213846FDF7E3FE0028F9D0641C84
:10396000E4B2B442F1D3BDE8F0810000420000208F
:10397000E81F00200038014010B586B000200190FB
:1039800001218DF808108DF809104FF46021039182
:10399000049008208DF81400FE4C01A92046FDF784
:1039A00029FF0723012200212046FDF7A8FF072356
:1039B000022201212046FDF7A2FF07230322022154
:1039C0002046FDF79CFF0723042203212046FDF734
:1039D00096FF0723052204212046FDF790FF0723C9
:1039E000062205212046FDF78AFF07231A460621F5
:1039F0002046FDF784FF0723082219462046FDF7DD
:103A00007EFF01212046FDF728FF01212046FDF71A
:103A100019FF2046FDF736FF2046FDF738FF002846
:103A2000FAD12046FDF73AFF2046FDF73CFF00287B
:103A3000FAD106B010BD10B586B0002001908DF807
:103A4000080001218DF809104FF4602203920490C0
:103A50008DF81410CF4C01A92046FDF7CBFE0723AB
:103A6000012200212046FDF74AFF01212046FDF7F3
:103A7000F4FE01212046FDF7E5FE2046FDF702FF9A
:103A80002046FDF704FF0028FAD12046FDF706FF87
:103A90002046FDF708FF0028FAD1CAE710B1012837
:103AA00001D169E7C7E7704730B58BB00446BA4D1E
:103AB0002846FEF721F8B7484C30009001940020CA
:103AC00002905021039104908021059149000691B4
:103AD000890007910890C90009910A906946284613
:103AE000FEF781F80BB030BD30B58BB00446AA4D5F
:103AF0002846FEF701F8A7484C30009001940020BA
:103B000002900A21039104908021059149000691B9
:103B1000890007910890C90009910A9069462846D2
:103B2000FEF761F8DEE718B1012803D19B48BBE737
:103B30009B48D9E7704710B50146964C07230122F0
:103B40002046FDF7DCFE01212046FDF7B3FE0221F1
:103B50002046FDF7A9FF0028F9D02046BDE8104017
:103B6000FDF712BF2DE9F04100248D4900EB8000E4
:103B7000884E894F01EB401504EB840005EB800073
:103B8000FFF7B2FF0723012221463046FDF7B7FEBB
:103B900001213046FDF78EFE01213846FEF74DF833
:103BA0000220FEF764F80028FAD00220FEF76EF833
:103BB000641CE4B2082CDFD3BDE8F08110B577496E
:103BC00000EB800001EB4014FFF7D6FE2046FFF724
:103BD0006BFF01216F48FDF76DFE01216E48FEF776
:103BE0002CF80220FEF743F80028FAD0BDE8104078
:103BF0000220FEF74BB82DE9F04F0021684E062752
:103C000048B101284DD100204FF0000C00230022C4
:103C1000C3F1090B68E000234FF0000C00250020E1
:103C2000C5F1090817E001EB810206EB421203EB34
:103C3000830402EB840232F81090441C32F814A082
:103C4000D14507D932F8109032F814A022F810A00C
:103C500022F81490E0B28045E5DC6D1CEDB2092D30
:103C6000DDD3022001EB810206EB421203EB830459
:103C700002EB840232F81040A444401CC0B2082871
:103C8000F8D3BCFBF7F0464AC03A02EB011222F827
:103C900013005B1CDBB2082BBED3491CC9B20C2934
:103CA000B9D3BDE8F08F3D4C01EB810804EB48151A
:103CB00005EB021939F810A0541CA64605EB0414B4
:103CC00034F81050AA450DD906EB481502EB8202D4
:103CD00005EB820232F8102034F8105029F8105009
:103CE00024F810200EF0FF029345DCDC5B1CDBB2F5
:103CF000092B8CD3022201EB810306EB431302EB69
:103D0000820403EB840434F81040A444521CD2B261
:103D1000082AF4D3BCFBF7F2214BC03B03EB0113A1
:103D200023F81020401CC0B20828FFF46DAF491CD6
:103D3000C9B20C29FFF467AFB3E7F8B50025184FF7
:103D4000C03F002407EB051640F6E44036F8143077
:103D50005843000B00902246294612A00DF0FEFEAB
:103D6000641CE4B2082CEFD36D1CEDB20C2DE8D32B
:103D7000F8BD2DE9FC410746144A154B15A00DF07E
:103D8000EDFE002631461EA00DF0E8FE0025294676
:103D900048E0000000240140080002405A280020AA
:103DA000DA20002041445F417665726167655B25DA
:103DB000645D5B25645D203D202564202D2D2D2D27
:103DC0002D2D202564206D760D0A00006F1283C012
:103DD000CA2109402D2D2D2D204144B2C9BCAF2050
:103DE0003132C1D02038CDA8B5C020CAFDBEDD20FB
:103DF0002D2D332E352D2D2D25662D0D0A0000007D
:103E00002D2D2D2D2D2DB5DA20256420C1D0CAFDF4
:103E1000BEDD2D2D2D2D2D2D2D2D2D2D2D2D2D2D91
:103E20000D0A0000C2A00DF099FE002417B1012F69
:103E30001AD030E0CB4806EB860100EB411005EBD1
:103E4000850100EB810131F8140040F6E442504353
:103E5000000B31F81410CDE9001023462A463146F4
:103E6000C1A00DF07BFE16E0C94806EB860100EB11
:103E7000411000EB041131F8150040F6E4425043C4
:103E8000000B31F81510CDE900102B4622463146C3
:103E9000C0A00DF063FE1420FFF721F8641C0A2C6B
:103EA000C4DB6D1C082DFFF672AF761C0C2EFFF6DE
:103EB00069AFBDE8FC812DE9FC410746BF4AC04B14
:103EC000AFF2F0000DF04AFE00263146AFF2D0000E
:103ED0000DF044FE0025294695A00DF03FFE00247C
:103EE00017B1012F1AD030E09E4806EB860100EB97
:103EF000411005EB850100EB810131F8140040F61B
:103F0000E4425043000B31F81410CDE90010234671
:103F10002A46314694A00DF021FE16E09C4806EB9F
:103F2000860100EB411000EB041131F8150040F65A
:103F3000E4425043000B31F81510CDE900102B4638
:103F40002246314693A00DF009FE1420FEF7C7FF6C
:103F5000641C0A2CC4DB6D1C082DBCDB761C0C2EEB
:103F6000B3DBA6E7F0B50023002700227D4C03EB6E
:103F7000830104EB4116864C04EB4115002102EB52
:103F8000820406EB840410B1012803D006E024F873
:103F9000117003E005EB011C2CF81270491C0A2972
:103FA000F1DB521C082AE9DB5B1C0C2BDDDBF0BDCE
:103FB00010B586B0834C2046FDF7F0FB002101913F
:103FC0008DF808108DF809104FF4602203920491C7
:103FD00001218DF8141001A92046FDF70BFC0121E9
:103FE0002046FDF72FFC2046FDF74CFC2046FDF750
:103FF0004EFC0028FAD12046FDF750FC2046FDF784
:1040000052FC0028FAD114E510B56E4C0146072386
:1040100001222046FDF773FC01212046FDF74AFCF2
:1040200002212046FDF740FD0028F9D02046BDE8DA
:104030001040FDF7A9BC2DE9F04107460E460025CA
:1040400000240AE03846FFF7DFFF0DF08FFA29461B
:104050000DF0B3F80546641CA4B2B442F2D3304666
:104060000DF084FA01462846BDE8F0410DF033B961
:104070002DE9F04FE5B083460C464FF4C87101A816
:104080000DF08FF800270025322C04D0642C04D0CA
:10409000C82C04D004E00A2502E0142500E02825FD
:1040A0000DF104080026B14608E03846FFF743FD4D
:1040B00028F8190009F1010909F0FF09A145F4D315
:1040C0000021A4F1010A15E00022A4EB0109A9F1E5
:1040D00001090BE0531C38F8120038F813C0604592
:1040E00003D928F812C028F81300DAB29145F1DCA0
:1040F000491CC9B25145E7DB2846611B04E038F88A
:1041000010201644401CC0B28142F8DC684204EB27
:104110004000B6FBF0F01349C03901EB0B1121F858
:1041200017007F1CFFB2082FBCD365B0B9E50000B3
:104130002D2D2D2D2D2D2D2D2D2D2D2D2D2D2D2DAF
:104140002D2DB5DA20256420CDA8B5C0CAFDBEDD71
:104150002D2D2D2D2D2D2D2D2D2D2D2D2D2D0D0AD2
:1041600000000000DA20002041445F56616C756554
:10417000315B25645D5B25645D5B25645D203D20CE
:104180002564202D2D2D2D2D2D25646D760D0A00F5
:104190005A28002041445F56616C7565325B256486
:1041A0005D5B25645D5B25645D203D202564202DDD
:1041B0002D2D2D2D2D25646D760D0A006F1283C0D7
:1041C000CA2109400024014008B5FEA00068009003
:1041D000032168460BF0A6F9002008BD08B5FAA037
:1041E00000680090032168460BF09CF9F749012014
:1041F0000870002008BD08B5F5A0006800900321F4
:1042000068460BF08FF9002008BD08B5F1A00068E2
:104210000090032168460BF085F9002008BD08B521
:10422000EDA000680090032168460BF07BF90020A8
:1042300008BD08B5E9A000680090032168460BF0AE
:1042400071F9002008BD08B5E5A0006800900321C1
:1042500068460BF067F9002008BD08B5E1A00068CA
:104260000090032168460BF05DF9002008BD08B5F9
:10427000DDA000680090032168460BF053F9002090
:1042800008BD08B5D9A0006800904FF48071D848E7
:10429000FCF7B4F9032168460BF044F9002008BD8F
:1042A00008B5D4A109680091D34948B101220A7028
:1042B000D2490870032168460BF034F9002008BD8C
:1042C000002008704FF48071C948FCF799F9F1E7B4
:1042D00010B501F043F9CA4801240470012001F02F
:1042E00077F9C8480470C8490020087010BDF8B5B7
:1042F0000646C6A000680090032001F069F9C24894
:1043000001210170BF4900250D70BD4C21780129A4
:1043100004D10221304601F0F3FA25700020F8BDE7
:10432000F8B50646BAA1086800900221304601F0AF
:10433000E7FAB44C2178012903D10221304601F07B
:1043400029FBB14D2978012903D10221304601F022
:1043500079FB002020702870A9490870F8BD10B5BD
:10436000012101F0CDFA002010BD38B50021A94887
:10437000FCF72DFE4FF4E070ADF8000010208DF832
:10438000030003208DF80200A34C69462046FCF789
:10439000C6F840212046FCF733F9A1152046FCF76A
:1043A0002FF980212046FCF729F996490020087052
:1043B000954908709249087038BD10B5012101F087
:1043C000E9FA002010BD10B5032101F03BFB0020ED
:1043D00010BD08B591A10968009148B1FEF722FE11
:1043E0008DF80100032168460BF09CF8002008BD01
:1043F000012008BD38B504460D4689A10968009121
:10440000032168460BF08EF8E1B22A460C460020E4
:10441000FEF7B6FE2A4621460120FEF7B1FE002037
:1044200038BD08B57FA212680092FEF780FF8DF8B4
:104430000100032168460BF075F8002008BD08B59F
:104440000246022078A31B68009322B1012A08D0FB
:10445000022A0FD10BE001EB810202EBC101C9B2CC
:1044600008E0032001EB81014906090E02E0042067
:10447000C906090EFEF7F2FE8DF801000321684619
:104480000BF050F8002008BD08B568A00068009047
:10449000032168460BF046F8002008BD08B564A06B
:1044A00000680090032168460BF03CF8002008BD2E
:1044B00008B560A000680090032168460BF032F850
:1044C000002008BD08B55CA0006800900321684684
:1044D0000BF028F8002008BD08B558A21268009219
:1044E000FFF76EF88DF80100032168460BF01AF80B
:1044F000002008BD08B552A31B680093FFF79EF883
:104500008DF80100032168460BF00CF8002008BD6F
:1045100000B585B06846FBF7EBFE4AA000990DF0A8
:104520001DFB4EA001990DF019FB52A002990DF050
:1045300015FB56A003990DF011FB5AA004990DF03C
:104540000DFB5EA00DF00AFB05B0002000BD7CB5A0
:10455000002462A003C8CDE90001624E6D46325DC1
:104560002A55214660A00DF0F9FA641CE4B2062C2D
:10457000F5D30621684600F05EFD01465EA00DF011
:10458000EDFA00207CBD2DE9F843064600243220D8
:1045900006FB00F85AA0006800905A4F41F2883597
:1045A00004213846FCF72AF84046FEF77FFC042138
:1045B0003846FCF725F84046FEF778FC641CAC4210
:1045C000EED3A1E03000FF004000FF002A000020F1
:1045D0006000FF007000FF008000FF009000FF00FF
:1045E000A000FF00B000FF00C000FF00D000FF00EF
:1045F00000080140E000FF002E0000202F000020F6
:104600003300002031000020320000203100FF0084
:104610004100FF0000080040000C01407100FF0055
:104620008100FF009100FF00A100FF00B100FF002A
:10463000C100FF00D100FF00E100FF003200FF00D9
:104640004200FF00535953434C4B5F4672657175EE
:10465000656E6379202564200D0A000048434C4BA9
:104660005F4672657175656E6379202564200D0A59
:104670000000000050434C4B315F46726571756518
:104680006E6379202564200D0A00000050434C4BD6
:10469000325F4672657175656E6379202564200D01
:1046A0000A000000414443434C4B5F4672657175FC
:1046B000656E6379202564200D0A00002D2D2D2DB7
:1046C0002D2D2D2D2D2D2D2D2D2D2D2D2D2D2D2D1A
:1046D0002D2D2D2D2D2D2D0D0A000000010203047E
:1046E00005060000E81F0020735B25645D203D2067
:1046F00025640D0A0000000025303858680D0A00B6
:104700002800FF00001401408DF801600321684675
:104710000AF008FF0020BDE8F8832DE9F04F87B0CC
:104720000446109E8B46904699460025F7A00068E7
:104730000590BBF1090F02D2B8F1070F0AD9012089
:104740008DF81500032105A80AF0ECFE012007B042
:10475000BDE8F08FB9F1000F0ED15A4609210120B2
:10476000FEF76CFF40B102208DF81500032105A86B
:104770000AF0D8FE0220EAE7FFF71AFC1420FEF741
:10478000AEFB2000E24C6FF00B074FF47A7A2CD18D
:104790004FF448714046FFF74EFC05462146284637
:1047A0000CF063FD39460CF0D6FD0CF0F1FE04462A
:1047B000B4FBFAF087B20AFB104A16B1012E0BD0F7
:1047C00044E028460CF0F8FE8DE893044246594632
:1047D000D0A00DF0C3F939E028460CF0EDFE0246FA
:1047E0000B46DBA00DF0BAF930E04FF4FA71284621
:1047F000FFF721FC0690C64906980CF036FD6FF0D5
:104800000B010CF0A8FD0CF0C3FE0446B4FBFAF05B
:1048100087B20AFB104816B1012E0BD012E00698A1
:104820000CF0CAFE8DE893012A465946CAA00DF045
:1048300095F907E006980CF0BFFE02460B46C4A0AF
:104840000DF08CF96D1CEDB2082DCED3B9F1000F2F
:104850000DD109210120FEF7B3FE40B103208DF8F0
:104860001500032105A80AF05DFE03206FE7002074
:104870006DE738B50546AFF2542000680090C54C8E
:1048800021B1012905D0022906D007E0322020708D
:1048900004E06420207001E0C82020700020FFF7B1
:1048A000FDF80020FFF73FF921782846FEF714FFB6
:1048B000044615B90020FFF79EF9FFF73EFA8DF880
:1048C0000140032168460AF02DFE002038BD2DE985
:1048D000FC5F8246884615461F46AFA000680190DF
:1048E000002000908146002600240120BAF1080F24
:1048F00017D8B8F1080F14D8BAF1000F02D1B8F1E7
:10490000000F0ED15AEA08010BD08DF800A08DF8E7
:104910000180B8F1000F0DD0A04908704FF0020BD4
:104920000DE08DF80500032101A80AF0FBFD012030
:10493000BDE8FC9F9948002101704FF0010BFFF783
:1049400037FB59E077B91DF8042009210120FEF753
:1049500075FE38B18DF80500032101A80AF0E2FDCB
:104960000220E5E75FB90120FEF75CFB38B18DF866
:104970000500032101A80AF0D5FD0320D8E714B1F2
:10498000012C04D006E0DFF81892864E02E0DFF832
:104990001892864E1FB90221484601F0E3F80D2D0A
:1049A00001D027B111E0304606F03DFE22E065B1AE
:1049B00029460120FEF7BBFC38B18DF80500032124
:1049C00001A80AF0AFFD0420B2E714B1012C08D011
:1049D0000CE025B17349681E01EB401606E0704EED
:1049E00004E06DB17149681E01EB401602213046AA
:1049F00001F0B8F8641CE4B25C45A3D317B10EE033
:104A0000694EF3E709210120FEF7DAFD38B18DF890
:104A10000500032101A80AF085FD042088E7012094
:104A2000FEF700FB38B18DF80500032101A80AF05C
:104A300079FD03207CE74146504606F02BFF032119
:104A400001A80AF06FFD554C0C99207806F015FD71
:104A5000002020706CE72DE9F84F83460A9D0C4634
:104A6000904653A000680090524803707B2008F0E5
:104A70004FFC012654B1012C08D08DF801600321B0
:104A800068460AF04FFD0120BDE8F88F4A4F00202C
:104A90003870DFF828A14FF4807949465046FBF77B
:104AA000ADFDFFF785FA424609210120FEF7C6FD5C
:104AB00038B18DF80100032168460AF033FD022069
:104AC000E2E72146584601F071F838B18DF801004F
:104AD000032168460AF026FD0320D5E71DB94146AB
:104AE000012005F039FD2146584601F094F91DB921
:104AF0004146022005F030FD14B1012C60D062E087
:104B00005946404601F036FB5DE059E03800FF00B1
:104B100000404E45776176653D5B25645D2D2D63D4
:104B200068616E6E656C3D5B25645D3A252E34666A
:104B3000202D2D2D2D2D2D2564206D762D2D2D2D07
:104B40002D25642E25303364206D760D0A0000007B
:104B50003A252E3466000000776176653D5B25645A
:104B60005D2D2D6368616E6E656C3D5B25645D3AFD
:104B7000252E3466202D2D2D2D2D2D253464206DD0
:104B8000762D2D2D2D2D25642E25303364206D7628
:104B90000D0A0000460000205800FF005C020020C3
:104BA0001C5300205C5300203C530020DC540020A8
:104BB0006800FF00580000202E000020000801407F
:104BC000404605F0EEFD1DB94146032005F0C4FC4A
:104BD00014B1012C0BD010E0012D0ED159464046E6
:104BE00005F0F3F84146042005F0B6FC05E0012D80
:104BF00003D14146052005F0AFFC3E7049465046C2
:104C0000FBF7FEFC09210120FEF7DAFC38B18DF834
:104C10000100032168460AF085FC042034E70020E7
:104C200032E7F8B506460C46D7A000680090C825C4
:104C3000D64F01213846FBF7E3FC02213846FBF74B
:104C4000DFFC16B1012E24D03DE04FF480663C46D7
:104C50000FE004212046FBF7D3FC0120FEF73FF9CB
:104C600004212046FBF7CAFC0120FEF738F96D1E2F
:104C7000ADB231462046FBF7ADFC08B9002DE8D1B6
:104C800001212046FBF7BAFC2946C1A00CF066FFC3
:104C900019E004F516743D460FE004212846FBF7A1
:104CA000AFFC0120FEF71BF904212846FBF7A6FC08
:104CB0000120FEF714F9641EA4B2002CEDD10121ED
:104CC0002846FBF79BFC032168460AF02BFCF8BD45
:104CD0002DE9F84FB2A0006800904FF000090024C1
:104CE000B04E00203070DFF8C0824FF48077394634
:104CF0004046FBF783FCAD4D4FF4FA6A0421284689
:104D0000FBF77CFCC820FEF7D1F804212846FBF70E
:104D100077FCC820FEF7CAF8641CA4B25445EDD352
:104D20000C210120FEF703FB09EB00040A20FEF72B
:104D3000D6F80120FEF776F9211801F0FF0A40F2BB
:104D4000DC5990B1002404212846FBF757FCFA20D7
:104D5000FEF7ACF804212846FBF752FCFA20FEF7D8
:104D6000A5F8641CA4B24C45EDD30A20FEF7B7F8B1
:104D7000012209211046FEF761FC0AEB000101F057
:104D8000FF0A90B1002404212846FBF737FCFA20E3
:104D9000FEF78CF804212846FBF732FCFA20FEF7D8
:104DA00085F8641CA4B24C45EDD31420FEF797F8A7
:104DB0000A20FEF794F809210120FEF701FC0AEB16
:104DC000000101F0FF0A90B1002404212846FBF7FE
:104DD00015FCFA20FEF76AF804212846FBF710FCC0
:104DE000FA20FEF763F8641CA4B24C45EDD30A2008
:104DF000FEF775F88DF801A0032168460AF092FBD2
:104E000039464046FBF7FCFB0120307068490870CA
:104E1000504639E6F8B567A21268009200240026D1
:104E2000012905D0022905D0032905D00120F8BDAC
:104E3000614D02E0614D00E0614D68B10128F6D19D
:104E40007B2008F065FA295D5EA00CF087FE641CEB
:104E5000E4B2602CF7D3F8BD5B4C07E020786B28F8
:104E600006D26420FEF73BF8761CF6B20A2EF5D384
:104E7000002056490A18D27A2A54401CC0B2602831
:104E8000F8D37B2008F01FFA00208DF801000321E1
:104E900068460AF047FBF8BD2DE9F8430F464CA2DF
:104EA000126800924FF0000810B1012808D05DE0B0
:104EB000782008F0F2F8032168460AF033FB55E049
:104EC000782008F070F9012F06D0022F08D0032FA8
:104ED0000AD0042F0FD10BE03E4E3F4D3F4C0AE06D
:104EE0003F4E404D404C06E0404E414D414C02E0AB
:104EF000414E424D424C002730680CF05DFB0246AB
:104F00000B4640A00CF02AFE361D7F1CFFB2062F78
:104F1000F2D308F1010808F0FF08B8F1080FEAD34E
:104F20000027002628680CF047FB02460B4635A0F8
:104F30000CF014FE2D1D761CF6B2062EF2D37F1C4B
:104F4000FFB2082FEDD30026002520680CF034FBBB
:104F500002460B462BA00CF001FE241D6D1CEDB289
:104F6000052DF2D3761CF6B2082EEDD30020BDE855
:104F7000F8830B2906D3807AFF2801D001207047DF
:104F800000207047022070477800FF00000C0140AD
:104F9000636F756E74203D2025640D0A00000000CB
:104FA0008800FF002E00002000080140001401408E
:104FB0002F0000209800FF003C0100209C010020F1
:104FC000FC0100203A256400520000201434002027
:104FD0000900FF001C4200201C4800201C4E00203D
:104FE000DC420020DC480020BC4E00209C43002016
:104FF0009C4900205C4F00205C4400205C4A00205B
:10500000FC4F00203A25302E3466000030B50021D8
:10501000114B124D08460022C40702D083EA50000B
:1050200000E04008521C082AF6DB45F82100491C24
:10503000FF29EFDD30BD10B54FF0FF32074B07E021
:1050400010F8014B5440E4B253F8244084EA122291
:10505000491EF5D2D04310BD2083B8EDDC2F0020CF
:1050600008B50421012809D00120ADF800008DF811
:1050700003106946F948FBF752FA08BD4FF4007077
:10508000ADF800008DF803106946F548FBF747FAC4
:1050900008BD70B5054600242846FFF7E1FF012D45
:1050A00001D0EE4D2CE04FF40076ED4D04E0641C91
:1050B000E4B20120FDF7FAFE31462846FBF78AFAF2
:1050C00008B1C82CF3D3C82C01D3012070BD002433
:1050D00004E0641CE4B20120FDF7E8FE31462846F6
:1050E000FBF778FA08B9F02CF3D3F02C01D30120A8
:1050F00070BD002070BD641CE4B20120FDF7D6FE37
:1051000001212846FBF766FA08B1C82CF3D3C82C56
:1051100001D3012070BD002404E0641CE4B201202E
:10512000FDF7C4FE01212846FBF754FA08B9F02C1C
:10513000F3D3F02C01D3012070BD002070BD08B561
:105140000322102101280BD00120ADF800008DF8BA
:1051500002208DF803106946C048FBF7E0F908BD4E
:105160004FF40070ADF800008DF802208DF80310A8
:105170006946BB48FBF7D3F908BD70B540F2EE2491
:10518000012812D0FFF7DBFFB44D01212846FBF7C1
:1051900037FA2046FDF78AFE01212846FBF72EFA52
:1051A000BDE870400F20FDF781BEFFF7C8FFAC4E91
:1051B0004FF4007529463046FBF722FA2046FDF7EA
:1051C00075FE29463046FBF719FABDE870400F20FE
:1051D000FDF76CBEF8B510250326012822D0012169
:1051E0002020FBF7DBF801210846FBF7D7F8012167
:1051F000C803FBF724FA0120ADF800008DF8026027
:105200008DF80350954C69462046FBF788F901213B
:105210002046FBF7F3F90220FFF7AFFF0220FFF76C
:1052200038FFF8BD01210820FBF7B8F84FF40074EF
:10523000ADF800408DF803508DF80260884D694646
:105240002846FBF76CF921462846FBF7D7F90120E1
:10525000FFF793FF0120FFF71CFFF8BD10B50024F6
:10526000012808D019E0641CE4B23220FDF737FEB3
:105270007CA00CF073FC0120FFF7ACFF08B10A2CF6
:10528000F1D30A2C00D3012010BD641CE4B23220FB
:10529000FDF725FE78A00CF061FC0220FFF79AFFD5
:1052A00008B10A2CF1D30A2CEED3012010BD70B541
:1052B0000446012C14D02046FFF741FF674D012121
:1052C0002846FBF79DF90220FDF7F0FD2046FFF789
:1052D000C7FE01212846FBF77DF9F0B101241DE04E
:1052E0002046FFF72CFF5E4E4FF4007529463046EE
:1052F000FBF786F90220FDF7D9FD2046FFF7B0FE47
:1053000029463046FBF766F908B1012400E0002485
:105310003220FDF7CBFD204670BD00243220FDF782
:10532000C5FD204670BD70B50646002501243046F7
:10533000FFF7BDFFC00140EA5500C5B2641CE4B2EE
:10534000082CF4D9284670BD2DE9F04104460846E2
:10535000012816D0FFF7F3FE0125404E04F00100AE
:105360006408D0B301213046FBF74AF90220FDF76B
:105370009DFD01213046FBF741F93C20FDF796FDEC
:105380003AE0FFF7DCFE0125354F6E0204F0010024
:10539000640870B131463846FBF732F90220FDF758
:1053A00085FD31463846FBF729F93C20FDF77EFDA7
:1053B0000DE031463846FBF723F93C20FDF776FD3A
:1053C00031463846FBF71AF90220FDF76FFD6D1CD8
:1053D000EDB2082DDAD9BDE8F081FFE701213046B2
:1053E000FBF70EF93C20FDF761FD01213046FBF78C
:1053F00005F90220FDF75AFD6D1CEDB2082DADD95F
:10540000E9E770B505462846FFF7B7FE2846FFF7DF
:1054100040FE2946CC20FFF797FF29464420FFF79E
:1054200093FF6420FDF742FD2846FFF7A6FE2846BD
:10543000FFF72FFE2946CC20FFF786FF2946BE2026
:10544000FFF782FF2846FFF76EFF04462846FFF766
:105450006AFF04EB002080B270BD00000014014020
:10546000000C014031384232305F31B3F5CABCBB69
:10547000AFCAA7B0DC0D0A0031384232305F32B318
:10548000F5CABCBBAFCAA7B0DC0D0A0070B50446B4
:1054900000201F21B1EBD42FDED004F00F000CF060
:1054A00065F86FF003010BF056FF0546C4F30610D4
:1054B0000CF05CF829460BF080FE03490BF0D5FE9A
:1054C0000CF066F880B2C7E70000204110B50C462A
:1054D0001C210BF066FE032C09D0012C06D1F848E4
:1054E000F6494160F74981604907C16010BDF44841
:1054F000F5491C3841604FF07A518160F349C16031
:1055000010BD2DE9F041044608460CF02FF8216843
:105510000BF0A8FE05462946A0690BF04EFE074693
:10552000A061D4E9046130460BF099FE0146666142
:105530002561E0680BF099FE06463946A0680BF03D
:1055400094FE0746294660680BF08FFE39460BF043
:1055500034FE3146BDE8F0410BF02FBE30B589B0C6
:105560008020ADF8200018208DF8230003208DF84E
:10557000220008A9D648FAF7D2FFC720ADF81800D4
:1055800040F65F10ADF814000024ADF81A40ADF8F5
:105590001640D04D05A92846FBF75AFA6021ADF810
:1055A00004100121ADF80610C821ADF80A10ADF8BD
:1055B0000C4001A92846FBF7BDFA01212846FBF75C
:1055C00006FDBF4803211C38FFF780FF09B030BD3E
:1055D0002DE9F04F89B00246BD480025BD4F10218E
:1055E000032486154FF001084FF0400940F65F1A7A
:1055F0004FF0600B012A18D0032A52D04FF4A0724A
:10560000ADF820208DF823108DF8224008A904461B
:10561000FAF785FF40212046FAF7F2FF314620468F
:10562000FAF7EEFF09B0BDE8F08FADF820908DF8E5
:1056300023108DF8224008A98146FAF770FF402117
:105640004846FAF7DDFFADF8206018208DF82300FA
:105650008DF8224008A94846FAF761FFC720ADF847
:105660001800ADF814A0ADF81A50ADF8165005A901
:105670003846FBF7EDF9ADF804B0ADF80680C82167
:10568000ADF80A10ADF80C5001A93846FBF790FAB6
:1056900001213846FBF79BFC01218948FFF716FFE3
:1056A000C0E7ADF820608DF823108DF8224008A9DE
:1056B0008748FAF734FF31468548FAF7A1FFADF87D
:1056C000209018208DF823008DF8224008A98048EA
:1056D000FAF725FFC720ADF81800ADF814A0ADF813
:1056E0001A50ADF8165005A93846FBF7B1F9ADF8D8
:1056F00004B0ADF80680C821ADF80A10ADF80C5022
:1057000001A93846FBF7DDF901213846FBF75FFCBC
:1057100001216B48FFF7DAFE84E72DE9FF47844655
:1057200008466D4B0024602501266A4F6B4AA0F5A0
:105730000001BCF1030F09D04FF0FF39BCF1010F9C
:1057400021D0904640453FDB64204AE0904201DB97
:1057500000200AE0994207D2014610460BF07FFD77
:105760000BF016FFC0B200E0C820ADF80050ADF855
:105770000260ADF80600ADF8084069463846FBF710
:10578000D9F9BDE8FF879046404501DB64200CE075
:10579000994209D249460BF0DEFD41460BF062FD0D
:1057A0000BF0F6FEC0B200E0C820ADF80050ADF836
:1057B0000260C0F1C800ADF80600ADF808406946C7
:1057C0003846FBF7F5F9DCE7994209D249460BF078
:1057D000C2FD41460BF046FD0BF0DAFEC0B200E020
:1057E000C820ADF80050ADF80260C0F1C800ADF8B7
:1057F0000600ADF8084069463846FBF762F9C0E795
:105800002DE9FF41024660250126324F0024032A7C
:105810001AD02F484FF06408012A2BD08215032993
:105820005ED002290ED11146FAF7EAFEADF800501B
:10583000ADF80260ADF80640ADF80840694638465C
:10584000FBF73FF9BDE8FF81ADF80050ADF802600D
:10585000012902D0022903D005E0ADF8064002E09C
:10586000C820ADF80600ADF8084069463846FBF799
:1058700061F9E7E7012911D00229E3D14021FAF7C4
:10588000BFFEADF80050ADF80260ADF80640ADF8CF
:10589000084069463846FBF78BF9D3E74021FAF711
:1058A000AFFEADF80050ADF80260ADF80680ADF87F
:1058B000084069463846FBF77BF9C3E76666663FF2
:1058C000F83300209A99193E000070410000E04032
:1058D000000C0140000800400000C842000048439E
:1058E0001146FAF78DFEADF80050ADF80260ADF844
:1058F0000680ADF8084069463846FBF7E2F8A1E7B4
:1059000070B50546012905D0022942D1BDE8704095
:10591000032075E70120FFF774FDFFF7B7FD04468C
:105920006E48007802280FD1A4F5407052380BD091
:1059300020460BF020FE0022694B0BF088FD02464A
:105940000B4668A00CF00AF9281B0A2804DDBDE804
:1059500070400121032053E7052815DD28460BF090
:1059600005FE63490860634D2C8121466048FFF7BE
:10597000C8FD0BF00DFE80B2E8800BF0F7FDBDE82E
:10598000704001460320C8E6BDE8704000210320B6
:10599000C3E670BD2DE9F0410546012905D0022975
:1059A0004ED1BDE8F04101202AE70220FFF729FD92
:1059B000FFF76CFD04464948007803280FD1A4F591
:1059C000407052380BD020460BF0D5FD0022444BDE
:1059D0000BF03DFD02460B4647A00CF0BFF8281B1C
:1059E000142804DDBDE8F0410121084608E7404FD6
:1059F000404E1C370A2813DD28460BF0B7FD3860EF
:105A0000348121463846FFF77CFD0BF0C1FD80B2A2
:105A1000F0800BF0ABFDBDE8F041014601207CE6D3
:105A200028460BF0A3FD38603481314821461C30F4
:105A3000FFF767FD0021F180BDE8F04101206CE631
:105A4000BDE8F08170B50546032905D0022944D18F
:105A5000BDE870400846D3E60220FFF7D2FCFFF70E
:105A600015FD04461D48007803280FD1A4F54070A9
:105A700052380BD020460BF07EFD0022184B0BF065
:105A8000E6FC02460B461CA00CF068F8A5421FD2AB
:105A9000184A5088844208D80020107090805480A2
:105AA000BDE8704003210220AAE691888C4201D310
:105AB000948008E0091A1E2905DD117819B9012121
:105AC000117014305080BDE870400221084697E6FE
:105AD000BDE870400221084692E670BD300000200B
